{
  "contractName": "ManufactureEntity",
  "abi": [
    {
      "constant": true,
      "inputs": [
        {
          "name": "",
          "type": "address"
        }
      ],
      "name": "manufacturers",
      "outputs": [
        {
          "name": "manufacturerAddress",
          "type": "address"
        },
        {
          "name": "manufacturerName",
          "type": "string"
        },
        {
          "name": "manufacturerLocation",
          "type": "string"
        }
      ],
      "payable": false,
      "stateMutability": "view",
      "type": "function"
    },
    {
      "constant": true,
      "inputs": [
        {
          "name": "",
          "type": "uint256"
        }
      ],
      "name": "batches",
      "outputs": [
        {
          "name": "batchId",
          "type": "uint256"
        },
        {
          "name": "drugId",
          "type": "uint256"
        },
        {
          "name": "manufactureDate",
          "type": "string"
        },
        {
          "name": "expiryDate",
          "type": "string"
        },
        {
          "name": "quantityProduced",
          "type": "uint256"
        },
        {
          "name": "quantityAvailable",
          "type": "uint256"
        },
        {
          "name": "manufacturerAddress",
          "type": "address"
        }
      ],
      "payable": false,
      "stateMutability": "view",
      "type": "function"
    },
    {
      "constant": true,
      "inputs": [
        {
          "name": "",
          "type": "uint256"
        }
      ],
      "name": "drugIds",
      "outputs": [
        {
          "name": "",
          "type": "uint256"
        }
      ],
      "payable": false,
      "stateMutability": "view",
      "type": "function"
    },
    {
      "constant": true,
      "inputs": [
        {
          "name": "",
          "type": "uint256"
        }
      ],
      "name": "drugs",
      "outputs": [
        {
          "name": "drugId",
          "type": "uint256"
        },
        {
          "name": "drugName",
          "type": "string"
        },
        {
          "name": "drugType",
          "type": "string"
        },
        {
          "name": "drugPrice",
          "type": "uint256"
        },
        {
          "name": "totalQuantity",
          "type": "uint256"
        },
        {
          "name": "description",
          "type": "string"
        }
      ],
      "payable": false,
      "stateMutability": "view",
      "type": "function"
    },
    {
      "anonymous": false,
      "inputs": [
        {
          "indexed": false,
          "name": "manufacturerAddress",
          "type": "address"
        }
      ],
      "name": "ManufacturerRegistered",
      "type": "event"
    },
    {
      "anonymous": false,
      "inputs": [
        {
          "indexed": false,
          "name": "manufacturerAddress",
          "type": "address"
        },
        {
          "indexed": false,
          "name": "batchId",
          "type": "uint256"
        }
      ],
      "name": "BatchProduced",
      "type": "event"
    },
    {
      "anonymous": false,
      "inputs": [
        {
          "indexed": false,
          "name": "drugId",
          "type": "uint256"
        },
        {
          "indexed": false,
          "name": "batchId",
          "type": "uint256"
        }
      ],
      "name": "DrugAndBatchAdded",
      "type": "event"
    },
    {
      "constant": false,
      "inputs": [
        {
          "name": "_manufacturerName",
          "type": "string"
        },
        {
          "name": "_manufacturerLocation",
          "type": "string"
        }
      ],
      "name": "registerManufacturer",
      "outputs": [],
      "payable": false,
      "stateMutability": "nonpayable",
      "type": "function"
    },
    {
      "constant": true,
      "inputs": [
        {
          "name": "_manufacturerAddress",
          "type": "address"
        }
      ],
      "name": "getManufacturer",
      "outputs": [
        {
          "name": "",
          "type": "address"
        },
        {
          "name": "",
          "type": "string"
        },
        {
          "name": "",
          "type": "string"
        },
        {
          "name": "",
          "type": "uint256[]"
        }
      ],
      "payable": false,
      "stateMutability": "view",
      "type": "function"
    },
    {
      "constant": true,
      "inputs": [
        {
          "name": "_manufacturerAddress",
          "type": "address"
        }
      ],
      "name": "getManufacturerBatches",
      "outputs": [
        {
          "name": "",
          "type": "uint256[]"
        }
      ],
      "payable": false,
      "stateMutability": "view",
      "type": "function"
    },
    {
      "constant": false,
      "inputs": [
        {
          "name": "_manufacturerAddress",
          "type": "address"
        },
        {
          "name": "_batchId",
          "type": "uint256"
        }
      ],
      "name": "addBatchProduced",
      "outputs": [
        {
          "name": "",
          "type": "bool"
        }
      ],
      "payable": false,
      "stateMutability": "nonpayable",
      "type": "function"
    },
    {
      "constant": false,
      "inputs": [
        {
          "name": "_drugId",
          "type": "uint256"
        },
        {
          "name": "_drugName",
          "type": "string"
        },
        {
          "name": "_drugType",
          "type": "string"
        },
        {
          "name": "_drugPrice",
          "type": "uint256"
        },
        {
          "name": "_totalQuantity",
          "type": "uint256"
        },
        {
          "name": "_description",
          "type": "string"
        }
      ],
      "name": "addDrug",
      "outputs": [],
      "payable": false,
      "stateMutability": "nonpayable",
      "type": "function"
    },
    {
      "constant": true,
      "inputs": [
        {
          "name": "_drugId",
          "type": "uint256"
        }
      ],
      "name": "getDrug",
      "outputs": [
        {
          "name": "",
          "type": "uint256"
        },
        {
          "name": "",
          "type": "string"
        },
        {
          "name": "",
          "type": "string"
        },
        {
          "name": "",
          "type": "uint256"
        },
        {
          "name": "",
          "type": "uint256"
        },
        {
          "name": "",
          "type": "string"
        },
        {
          "name": "",
          "type": "uint256[]"
        }
      ],
      "payable": false,
      "stateMutability": "view",
      "type": "function"
    },
    {
      "constant": true,
      "inputs": [
        {
          "name": "_drugId",
          "type": "uint256"
        }
      ],
      "name": "drugExists",
      "outputs": [
        {
          "name": "",
          "type": "bool"
        }
      ],
      "payable": false,
      "stateMutability": "view",
      "type": "function"
    },
    {
      "constant": false,
      "inputs": [
        {
          "name": "_drugId",
          "type": "uint256"
        },
        {
          "name": "_batchId",
          "type": "uint256"
        }
      ],
      "name": "addBatchToDrug",
      "outputs": [],
      "payable": false,
      "stateMutability": "nonpayable",
      "type": "function"
    },
    {
      "constant": false,
      "inputs": [
        {
          "name": "_drugId",
          "type": "uint256"
        },
        {
          "name": "_quantity",
          "type": "uint256"
        }
      ],
      "name": "updateDrugQuantity",
      "outputs": [],
      "payable": false,
      "stateMutability": "nonpayable",
      "type": "function"
    },
    {
      "constant": false,
      "inputs": [
        {
          "name": "_drugId",
          "type": "uint256"
        },
        {
          "name": "_price",
          "type": "uint256"
        }
      ],
      "name": "updateDrugPrice",
      "outputs": [],
      "payable": false,
      "stateMutability": "nonpayable",
      "type": "function"
    },
    {
      "constant": true,
      "inputs": [],
      "name": "getDrugIds",
      "outputs": [
        {
          "name": "",
          "type": "uint256[]"
        }
      ],
      "payable": false,
      "stateMutability": "view",
      "type": "function"
    },
    {
      "constant": true,
      "inputs": [
        {
          "name": "_drugId",
          "type": "uint256"
        }
      ],
      "name": "getDrugBatches",
      "outputs": [
        {
          "name": "",
          "type": "uint256[]"
        }
      ],
      "payable": false,
      "stateMutability": "view",
      "type": "function"
    },
    {
      "constant": false,
      "inputs": [
        {
          "name": "_batchId",
          "type": "uint256"
        },
        {
          "name": "_drugId",
          "type": "uint256"
        },
        {
          "name": "_manufactureDate",
          "type": "string"
        },
        {
          "name": "_expiryDate",
          "type": "string"
        },
        {
          "name": "_quantityProduced",
          "type": "uint256"
        }
      ],
      "name": "addBatch",
      "outputs": [],
      "payable": false,
      "stateMutability": "nonpayable",
      "type": "function"
    },
    {
      "constant": false,
      "inputs": [
        {
          "name": "_drugId",
          "type": "uint256"
        },
        {
          "name": "_drugName",
          "type": "string"
        },
        {
          "name": "_drugType",
          "type": "string"
        },
        {
          "name": "_drugPrice",
          "type": "uint256"
        },
        {
          "name": "_description",
          "type": "string"
        },
        {
          "name": "_batchId",
          "type": "uint256"
        },
        {
          "name": "_manufactureDate",
          "type": "string"
        },
        {
          "name": "_expiryDate",
          "type": "string"
        },
        {
          "name": "_quantityProduced",
          "type": "uint256"
        }
      ],
      "name": "addBatchAndDrug",
      "outputs": [],
      "payable": false,
      "stateMutability": "nonpayable",
      "type": "function"
    },
    {
      "constant": true,
      "inputs": [
        {
          "name": "_batchId",
          "type": "uint256"
        }
      ],
      "name": "getBatch",
      "outputs": [
        {
          "name": "",
          "type": "uint256"
        },
        {
          "name": "",
          "type": "uint256"
        },
        {
          "name": "",
          "type": "string"
        },
        {
          "name": "",
          "type": "string"
        },
        {
          "name": "",
          "type": "uint256"
        },
        {
          "name": "",
          "type": "uint256"
        },
        {
          "name": "",
          "type": "address"
        }
      ],
      "payable": false,
      "stateMutability": "view",
      "type": "function"
    }
  ],
  "bytecode": "0x608060405234801561001057600080fd5b5061376d806100206000396000f3fe608060405260043610610101576000357c0100000000000000000000000000000000000000000000000000000000900480631136580c14610106578063191bcef61461014b5780632095a0e4146102fc57806330b15caa146103415780635ac44282146104a05780636b5eb09c1461060f5780637009162a146107785780637ba2bf471461098c578063811840c414610a32578063affd366614610a9e578063b205a33414610deb578063b32c4d8d14610e7b578063b638714414610fea578063b8840d3d14611039578063d48ab3a614611222578063d7ae67c71461139f578063eb3b3774146113f2578063eddeead214611437578063fca5e61e146114aa575b600080fd5b34801561011257600080fd5b506101496004803603604081101561012957600080fd5b81019080803590602001909291908035906020019092919050505061164b565b005b34801561015757600080fd5b5061019a6004803603602081101561016e57600080fd5b81019080803573ffffffffffffffffffffffffffffffffffffffff1690602001909291905050506116f9565b604051808573ffffffffffffffffffffffffffffffffffffffff1673ffffffffffffffffffffffffffffffffffffffff168152602001806020018060200180602001848103845287818151815260200191508051906020019080838360005b838110156102145780820151818401526020810190506101f9565b50505050905090810190601f1680156102415780820380516001836020036101000a031916815260200191505b50848103835286818151815260200191508051906020019080838360005b8381101561027a57808201518184015260208101905061025f565b50505050905090810190601f1680156102a75780820380516001836020036101000a031916815260200191505b50848103825285818151815260200191508051906020019060200280838360005b838110156102e35780820151818401526020810190506102c8565b5050505090500197505050505050505060405180910390f35b34801561030857600080fd5b5061033f6004803603604081101561031f57600080fd5b810190808035906020019092919080359060200190929190505050611a79565b005b34801561034d57600080fd5b5061049e6004803603604081101561036457600080fd5b810190808035906020019064010000000081111561038157600080fd5b82018360208201111561039357600080fd5b803590602001918460018302840111640100000000831117156103b557600080fd5b91908080601f016020809104026020016040519081016040528093929190818152602001838380828437600081840152601f19601f8201169050808301925050505050505091929192908035906020019064010000000081111561041857600080fd5b82018360208201111561042a57600080fd5b8035906020019184600183028401116401000000008311171561044c57600080fd5b91908080601f016020809104026020016040519081016040528093929190818152602001838380828437600081840152601f19601f820116905080830192505050505050509192919290505050611b30565b005b3480156104ac57600080fd5b506104d9600480360360208110156104c357600080fd5b8101908080359060200190929190505050611de5565b6040518088815260200187815260200180602001806020018681526020018581526020018473ffffffffffffffffffffffffffffffffffffffff1673ffffffffffffffffffffffffffffffffffffffff168152602001838103835288818151815260200191508051906020019080838360005b8381101561056757808201518184015260208101905061054c565b50505050905090810190601f1680156105945780820380516001836020036101000a031916815260200191505b50838103825287818151815260200191508051906020019080838360005b838110156105cd5780820151818401526020810190506105b2565b50505050905090810190601f1680156105fa5780820380516001836020036101000a031916815260200191505b50995050505050505050505060405180910390f35b34801561061b57600080fd5b5061065e6004803603602081101561063257600080fd5b81019080803573ffffffffffffffffffffffffffffffffffffffff1690602001909291905050506120ad565b604051808473ffffffffffffffffffffffffffffffffffffffff1673ffffffffffffffffffffffffffffffffffffffff1681526020018060200180602001838103835285818151815260200191508051906020019080838360005b838110156106d45780820151818401526020810190506106b9565b50505050905090810190601f1680156107015780820380516001836020036101000a031916815260200191505b50838103825284818151815260200191508051906020019080838360005b8381101561073a57808201518184015260208101905061071f565b50505050905090810190601f1680156107675780820380516001836020036101000a031916815260200191505b509550505050505060405180910390f35b34801561078457600080fd5b5061098a600480360360c081101561079b57600080fd5b8101908080359060200190929190803590602001906401000000008111156107c257600080fd5b8201836020820111156107d457600080fd5b803590602001918460018302840111640100000000831117156107f657600080fd5b91908080601f016020809104026020016040519081016040528093929190818152602001838380828437600081840152601f19601f8201169050808301925050505050505091929192908035906020019064010000000081111561085957600080fd5b82018360208201111561086b57600080fd5b8035906020019184600183028401116401000000008311171561088d57600080fd5b91908080601f016020809104026020016040519081016040528093929190818152602001838380828437600081840152601f19601f82011690508083019250505050505050919291929080359060200190929190803590602001909291908035906020019064010000000081111561090457600080fd5b82018360208201111561091657600080fd5b8035906020019184600183028401116401000000008311171561093857600080fd5b91908080601f016020809104026020016040519081016040528093929190818152602001838380828437600081840152601f19601f820116905080830192505050505050509192919290505050612227565b005b34801561099857600080fd5b506109db600480360360208110156109af57600080fd5b81019080803573ffffffffffffffffffffffffffffffffffffffff169060200190929190505050612367565b6040518080602001828103825283818151815260200191508051906020019060200280838360005b83811015610a1e578082015181840152602081019050610a03565b505050509050019250505060405180910390f35b348015610a3e57600080fd5b50610a476125bc565b6040518080602001828103825283818151815260200191508051906020019060200280838360005b83811015610a8a578082015181840152602081019050610a6f565b505050509050019250505060405180910390f35b348015610aaa57600080fd5b50610de96004803603610120811015610ac257600080fd5b810190808035906020019092919080359060200190640100000000811115610ae957600080fd5b820183602082011115610afb57600080fd5b80359060200191846001830284011164010000000083111715610b1d57600080fd5b91908080601f016020809104026020016040519081016040528093929190818152602001838380828437600081840152601f19601f82011690508083019250505050505050919291929080359060200190640100000000811115610b8057600080fd5b820183602082011115610b9257600080fd5b80359060200191846001830284011164010000000083111715610bb457600080fd5b91908080601f016020809104026020016040519081016040528093929190818152602001838380828437600081840152601f19601f8201169050808301925050505050505091929192908035906020019092919080359060200190640100000000811115610c2157600080fd5b820183602082011115610c3357600080fd5b80359060200191846001830284011164010000000083111715610c5557600080fd5b91908080601f016020809104026020016040519081016040528093929190818152602001838380828437600081840152601f19601f8201169050808301925050505050505091929192908035906020019092919080359060200190640100000000811115610cc257600080fd5b820183602082011115610cd457600080fd5b80359060200191846001830284011164010000000083111715610cf657600080fd5b91908080601f016020809104026020016040519081016040528093929190818152602001838380828437600081840152601f19601f82011690508083019250505050505050919291929080359060200190640100000000811115610d5957600080fd5b820183602082011115610d6b57600080fd5b80359060200191846001830284011164010000000083111715610d8d57600080fd5b91908080601f016020809104026020016040519081016040528093929190818152602001838380828437600081840152601f19601f82011690508083019250505050505050919291929080359060200190929190505050612614565b005b348015610df757600080fd5b50610e2460048036036020811015610e0e57600080fd5b8101908080359060200190929190505050612679565b6040518080602001828103825283818151815260200191508051906020019060200280838360005b83811015610e67578082015181840152602081019050610e4c565b505050509050019250505060405180910390f35b348015610e8757600080fd5b50610eb460048036036020811015610e9e57600080fd5b810190808035906020019092919050505061290d565b6040518088815260200187815260200180602001806020018681526020018581526020018473ffffffffffffffffffffffffffffffffffffffff1673ffffffffffffffffffffffffffffffffffffffff168152602001838103835288818151815260200191508051906020019080838360005b83811015610f42578082015181840152602081019050610f27565b50505050905090810190601f168015610f6f5780820380516001836020036101000a031916815260200191505b50838103825287818151815260200191508051906020019080838360005b83811015610fa8578082015181840152602081019050610f8d565b50505050905090810190601f168015610fd55780820380516001836020036101000a031916815260200191505b50995050505050505050505060405180910390f35b348015610ff657600080fd5b506110236004803603602081101561100d57600080fd5b8101908080359060200190929190505050612a9f565b6040518082815260200191505060405180910390f35b34801561104557600080fd5b506110726004803603602081101561105c57600080fd5b8101908080359060200190929190505050612ac2565b604051808881526020018060200180602001878152602001868152602001806020018060200185810385528b818151815260200191508051906020019080838360005b838110156110d05780820151818401526020810190506110b5565b50505050905090810190601f1680156110fd5780820380516001836020036101000a031916815260200191505b5085810384528a818151815260200191508051906020019080838360005b8381101561113657808201518184015260208101905061111b565b50505050905090810190601f1680156111635780820380516001836020036101000a031916815260200191505b50858103835287818151815260200191508051906020019080838360005b8381101561119c578082015181840152602081019050611181565b50505050905090810190601f1680156111c95780820380516001836020036101000a031916815260200191505b50858103825286818151815260200191508051906020019060200280838360005b838110156112055780820151818401526020810190506111ea565b505050509050019b50505050505050505050505060405180910390f35b34801561122e57600080fd5b5061139d600480360360a081101561124557600080fd5b8101908080359060200190929190803590602001909291908035906020019064010000000081111561127657600080fd5b82018360208201111561128857600080fd5b803590602001918460018302840111640100000000831117156112aa57600080fd5b91908080601f016020809104026020016040519081016040528093929190818152602001838380828437600081840152601f19601f8201169050808301925050505050505091929192908035906020019064010000000081111561130d57600080fd5b82018360208201111561131f57600080fd5b8035906020019184600183028401116401000000008311171561134157600080fd5b91908080601f016020809104026020016040519081016040528093929190818152602001838380828437600081840152601f19601f82011690508083019250505050505050919291929080359060200190929190505050612e2a565b005b3480156113ab57600080fd5b506113d8600480360360208110156113c257600080fd5b81019080803590602001909291905050506130e4565b604051808215151515815260200191505060405180910390f35b3480156113fe57600080fd5b506114356004803603604081101561141557600080fd5b810190808035906020019092919080359060200190929190505050613106565b005b34801561144357600080fd5b506114906004803603604081101561145a57600080fd5b81019080803573ffffffffffffffffffffffffffffffffffffffff169060200190929190803590602001909291905050506131d9565b604051808215151515815260200191505060405180910390f35b3480156114b657600080fd5b506114e3600480360360208110156114cd57600080fd5b810190808035906020019092919050505061337a565b60405180878152602001806020018060200186815260200185815260200180602001848103845289818151815260200191508051906020019080838360005b8381101561153d578082015181840152602081019050611522565b50505050905090810190601f16801561156a5780820380516001836020036101000a031916815260200191505b50848103835288818151815260200191508051906020019080838360005b838110156115a3578082015181840152602081019050611588565b50505050905090810190601f1680156115d05780820380516001836020036101000a031916815260200191505b50848103825285818151815260200191508051906020019080838360005b838110156116095780820151818401526020810190506115ee565b50505050905090810190601f1680156116365780820380516001836020036101000a031916815260200191505b50995050505050505050505060405180910390f35b818060016000838152602001908152602001600020600001541415156116d9576040517f08c379a00000000000000000000000000000000000000000000000000000000081526004018080602001828103825260138152602001807f4472756720646f6573206e6f742065786973740000000000000000000000000081525060200191505060405180910390fd5b816001600085815260200190815260200160002060030181905550505050565b60006060806060848073ffffffffffffffffffffffffffffffffffffffff166000808373ffffffffffffffffffffffffffffffffffffffff1673ffffffffffffffffffffffffffffffffffffffff16815260200190815260200160002060000160009054906101000a900473ffffffffffffffffffffffffffffffffffffffff1673ffffffffffffffffffffffffffffffffffffffff16141515611805576040517f08c379a000000000000000000000000000000000000000000000000000000000815260040180806020018281038252601b8152602001807f4d616e75666163747572657220646f6573206e6f74206578697374000000000081525060200191505060405180910390fd5b61180d61357e565b6000808873ffffffffffffffffffffffffffffffffffffffff1673ffffffffffffffffffffffffffffffffffffffff168152602001908152602001600020608060405190810160405290816000820160009054906101000a900473ffffffffffffffffffffffffffffffffffffffff1673ffffffffffffffffffffffffffffffffffffffff1673ffffffffffffffffffffffffffffffffffffffff168152602001600182018054600181600116156101000203166002900480601f0160208091040260200160405190810160405280929190818152602001828054600181600116156101000203166002900480156119465780601f1061191b57610100808354040283529160200191611946565b820191906000526020600020905b81548152906001019060200180831161192957829003601f168201915b50505050508152602001600282018054600181600116156101000203166002900480601f0160208091040260200160405190810160405280929190818152602001828054600181600116156101000203166002900480156119e85780601f106119bd576101008083540402835291602001916119e8565b820191906000526020600020905b8154815290600101906020018083116119cb57829003601f168201915b5050505050815260200160038201805480602002602001604051908101604052809291908181526020018280548015611a4057602002820191906000526020600020905b815481526020019060010190808311611a2c575b50505050508152505090508060000151816020015182604001518360600151829250819150809050955095509550955050509193509193565b81806001600083815260200190815260200160002060000154141515611b07576040517f08c379a00000000000000000000000000000000000000000000000000000000081526004018080602001828103825260138152602001807f4472756720646f6573206e6f742065786973740000000000000000000000000081525060200191505060405180910390fd5b816001600085815260200190815260200160002060040160008282540192505081905550505050565b338073ffffffffffffffffffffffffffffffffffffffff166000808373ffffffffffffffffffffffffffffffffffffffff1673ffffffffffffffffffffffffffffffffffffffff16815260200190815260200160002060000160009054906101000a900473ffffffffffffffffffffffffffffffffffffffff1673ffffffffffffffffffffffffffffffffffffffff1614151515611c36576040517f08c379a000000000000000000000000000000000000000000000000000000000815260040180806020018281038252601b8152602001807f4d616e75666163747572657220616c726561647920657869737473000000000081525060200191505060405180910390fd5b6080604051908101604052803373ffffffffffffffffffffffffffffffffffffffff1681526020018481526020018381526020016000604051908082528060200260200182016040528015611c9a5781602001602082028038833980820191505090505b508152506000803373ffffffffffffffffffffffffffffffffffffffff1673ffffffffffffffffffffffffffffffffffffffff16815260200190815260200160002060008201518160000160006101000a81548173ffffffffffffffffffffffffffffffffffffffff021916908373ffffffffffffffffffffffffffffffffffffffff1602179055506020820151816001019080519060200190611d3f9291906135bd565b506040820151816002019080519060200190611d5c9291906135bd565b506060820151816003019080519060200190611d7992919061363d565b509050507fa02022e57eb2e7ae40c00a3b394bec5819680c1ce2bf125655fb6d98dffdb8df33604051808273ffffffffffffffffffffffffffffffffffffffff1673ffffffffffffffffffffffffffffffffffffffff16815260200191505060405180910390a1505050565b600080606080600080600087806003600083815260200190815260200160002060000154141515611e7e576040517f08c379a00000000000000000000000000000000000000000000000000000000081526004018080602001828103825260148152602001807f426174636820646f6573206e6f7420657869737400000000000000000000000081525060200191505060405180910390fd5b611e8661368a565b600360008b815260200190815260200160002060e060405190810160405290816000820154815260200160018201548152602001600282018054600181600116156101000203166002900480601f016020809104026020016040519081016040528092919081815260200182805460018160011615610100020316600290048015611f525780601f10611f2757610100808354040283529160200191611f52565b820191906000526020600020905b815481529060010190602001808311611f3557829003601f168201915b50505050508152602001600382018054600181600116156101000203166002900480601f016020809104026020016040519081016040528092919081815260200182805460018160011615610100020316600290048015611ff45780601f10611fc957610100808354040283529160200191611ff4565b820191906000526020600020905b815481529060010190602001808311611fd757829003601f168201915b5050505050815260200160048201548152602001600582015481526020016006820160009054906101000a900473ffffffffffffffffffffffffffffffffffffffff1673ffffffffffffffffffffffffffffffffffffffff1673ffffffffffffffffffffffffffffffffffffffff16815250509050806000015181602001518260400151836060015184608001518560a001518660c0015184945083935098509850985098509850985098505050919395979092949650565b60006020528060005260406000206000915090508060000160009054906101000a900473ffffffffffffffffffffffffffffffffffffffff1690806001018054600181600116156101000203166002900480601f01602080910402602001604051908101604052809291908181526020018280546001816001161561010002031660029004801561217f5780601f106121545761010080835404028352916020019161217f565b820191906000526020600020905b81548152906001019060200180831161216257829003601f168201915b505050505090806002018054600181600116156101000203166002900480601f01602080910402602001604051908101604052809291908181526020018280546001816001161561010002031660029004801561221d5780601f106121f25761010080835404028352916020019161221d565b820191906000526020600020905b81548152906001019060200180831161220057829003601f168201915b5050505050905083565b60e06040519081016040528087815260200186815260200185815260200184815260200183815260200182815260200160006040519080825280602002602001820160405280156122875781602001602082028038833980820191505090505b50815250600160008881526020019081526020016000206000820151816000015560208201518160010190805190602001906122c49291906135bd565b5060408201518160020190805190602001906122e19291906135bd565b50606082015181600301556080820151816004015560a08201518160050190805190602001906123129291906135bd565b5060c082015181600601908051906020019061232f92919061363d565b509050506002869080600181540180825580915050906001820390600052602060002001600090919290919091505550505050505050565b606061237161357e565b6000808473ffffffffffffffffffffffffffffffffffffffff1673ffffffffffffffffffffffffffffffffffffffff168152602001908152602001600020608060405190810160405290816000820160009054906101000a900473ffffffffffffffffffffffffffffffffffffffff1673ffffffffffffffffffffffffffffffffffffffff1673ffffffffffffffffffffffffffffffffffffffff168152602001600182018054600181600116156101000203166002900480601f0160208091040260200160405190810160405280929190818152602001828054600181600116156101000203166002900480156124aa5780601f1061247f576101008083540402835291602001916124aa565b820191906000526020600020905b81548152906001019060200180831161248d57829003601f168201915b50505050508152602001600282018054600181600116156101000203166002900480601f01602080910402602001604051908101604052809291908181526020018280546001816001161561010002031660029004801561254c5780601f106125215761010080835404028352916020019161254c565b820191906000526020600020905b81548152906001019060200180831161252f57829003601f168201915b50505050508152602001600382018054806020026020016040519081016040528092919081815260200182805480156125a457602002820191906000526020600020905b815481526020019060010190808311612590575b50505050508152505090508060600151915050919050565b6060600280548060200260200160405190810160405280929190818152602001828054801561260a57602002820191906000526020600020905b8154815260200190600101908083116125f6575b5050505050905090565b61262289898989858a612227565b61262f848a858585612e2a565b7f5a93f8d34af261d6662a65847aaf9fa731609d0bb1e7c10af9d837412d668d7f8985604051808381526020018281526020019250505060405180910390a1505050505050505050565b60606126836136de565b6001600084815260200190815260200160002060e0604051908101604052908160008201548152602001600182018054600181600116156101000203166002900480601f0160208091040260200160405190810160405280929190818152602001828054600181600116156101000203166002900480156127455780601f1061271a57610100808354040283529160200191612745565b820191906000526020600020905b81548152906001019060200180831161272857829003601f168201915b50505050508152602001600282018054600181600116156101000203166002900480601f0160208091040260200160405190810160405280929190818152602001828054600181600116156101000203166002900480156127e75780601f106127bc576101008083540402835291602001916127e7565b820191906000526020600020905b8154815290600101906020018083116127ca57829003601f168201915b505050505081526020016003820154815260200160048201548152602001600582018054600181600116156101000203166002900480601f01602080910402602001604051908101604052809291908181526020018280546001816001161561010002031660029004801561289d5780601f106128725761010080835404028352916020019161289d565b820191906000526020600020905b81548152906001019060200180831161288057829003601f168201915b50505050508152602001600682018054806020026020016040519081016040528092919081815260200182805480156128f557602002820191906000526020600020905b8154815260200190600101908083116128e1575b50505050508152505090508060c00151915050919050565b6003602052806000526040600020600091509050806000015490806001015490806002018054600181600116156101000203166002900480601f0160208091040260200160405190810160405280929190818152602001828054600181600116156101000203166002900480156129c55780601f1061299a576101008083540402835291602001916129c5565b820191906000526020600020905b8154815290600101906020018083116129a857829003601f168201915b505050505090806003018054600181600116156101000203166002900480601f016020809104026020016040519081016040528092919081815260200182805460018160011615610100020316600290048015612a635780601f10612a3857610100808354040283529160200191612a63565b820191906000526020600020905b815481529060010190602001808311612a4657829003601f168201915b5050505050908060040154908060050154908060060160009054906101000a900473ffffffffffffffffffffffffffffffffffffffff16905087565b600281815481101515612aae57fe5b906000526020600020016000915090505481565b600060608060008060608087806001600083815260200190815260200160002060000154141515612b5b576040517f08c379a00000000000000000000000000000000000000000000000000000000081526004018080602001828103825260138152602001807f4472756720646f6573206e6f742065786973740000000000000000000000000081525060200191505060405180910390fd5b612b636136de565b600160008b815260200190815260200160002060e0604051908101604052908160008201548152602001600182018054600181600116156101000203166002900480601f016020809104026020016040519081016040528092919081815260200182805460018160011615610100020316600290048015612c255780601f10612bfa57610100808354040283529160200191612c25565b820191906000526020600020905b815481529060010190602001808311612c0857829003601f168201915b50505050508152602001600282018054600181600116156101000203166002900480601f016020809104026020016040519081016040528092919081815260200182805460018160011615610100020316600290048015612cc75780601f10612c9c57610100808354040283529160200191612cc7565b820191906000526020600020905b815481529060010190602001808311612caa57829003601f168201915b505050505081526020016003820154815260200160048201548152602001600582018054600181600116156101000203166002900480601f016020809104026020016040519081016040528092919081815260200182805460018160011615610100020316600290048015612d7d5780601f10612d5257610100808354040283529160200191612d7d565b820191906000526020600020905b815481529060010190602001808311612d6057829003601f168201915b5050505050815260200160068201805480602002602001604051908101604052809291908181526020018280548015612dd557602002820191906000526020600020905b815481526020019060010190808311612dc1575b5050505050815250509050806000015181602001518260400151836060015184608001518560a001518660c0015185955084945081915080905098509850985098509850985098505050919395979092949650565b3373ffffffffffffffffffffffffffffffffffffffff166000803373ffffffffffffffffffffffffffffffffffffffff1673ffffffffffffffffffffffffffffffffffffffff16815260200190815260200160002060000160009054906101000a900473ffffffffffffffffffffffffffffffffffffffff1673ffffffffffffffffffffffffffffffffffffffff16141515612f54576040517f08c379a00000000000000000000000000000000000000000000000000000000081526004018080602001828103825260288152602001807f4f6e6c79206d616e7566616374757265722063616e2063616c6c20746869732081526020017f66756e6374696f6e00000000000000000000000000000000000000000000000081525060400191505060405180910390fd5b60e0604051908101604052808681526020018581526020018481526020018381526020018281526020018281526020013373ffffffffffffffffffffffffffffffffffffffff168152506003600087815260200190815260200160002060008201518160000155602082015181600101556040820151816002019080519060200190612fe19291906135bd565b506060820151816003019080519060200190612ffe9291906135bd565b506080820151816004015560a0820151816005015560c08201518160060160006101000a81548173ffffffffffffffffffffffffffffffffffffffff021916908373ffffffffffffffffffffffffffffffffffffffff16021790555090505061306733866131d9565b506130728486613106565b7fa1389be7ee227e3a254935f665f6185b0e716cd19cbbee4d30d72472a61dc9ee3386604051808373ffffffffffffffffffffffffffffffffffffffff1673ffffffffffffffffffffffffffffffffffffffff1681526020018281526020019250505060405180910390a15050505050565b6000816001600084815260200190815260200160002060000154149050919050565b81806001600083815260200190815260200160002060000154141515613194576040517f08c379a00000000000000000000000000000000000000000000000000000000081526004018080602001828103825260138152602001807f4472756720646f6573206e6f742065786973740000000000000000000000000081525060200191505060405180910390fd5b60016000848152602001908152602001600020600601829080600181540180825580915050906001820390600052602060002001600090919290919091505550505050565b60003373ffffffffffffffffffffffffffffffffffffffff166000803373ffffffffffffffffffffffffffffffffffffffff1673ffffffffffffffffffffffffffffffffffffffff16815260200190815260200160002060000160009054906101000a900473ffffffffffffffffffffffffffffffffffffffff1673ffffffffffffffffffffffffffffffffffffffff16141515613305576040517f08c379a00000000000000000000000000000000000000000000000000000000081526004018080602001828103825260288152602001807f4f6e6c79206d616e7566616374757265722063616e2063616c6c20746869732081526020017f66756e6374696f6e00000000000000000000000000000000000000000000000081525060400191505060405180910390fd5b6000808473ffffffffffffffffffffffffffffffffffffffff1673ffffffffffffffffffffffffffffffffffffffff1681526020019081526020016000206003018290806001815401808255809150509060018203906000526020600020016000909192909190915055506001905092915050565b6001602052806000526040600020600091509050806000015490806001018054600181600116156101000203166002900480601f01602080910402602001604051908101604052809291908181526020018280546001816001161561010002031660029004801561342c5780601f106134015761010080835404028352916020019161342c565b820191906000526020600020905b81548152906001019060200180831161340f57829003601f168201915b505050505090806002018054600181600116156101000203166002900480601f0160208091040260200160405190810160405280929190818152602001828054600181600116156101000203166002900480156134ca5780601f1061349f576101008083540402835291602001916134ca565b820191906000526020600020905b8154815290600101906020018083116134ad57829003601f168201915b505050505090806003015490806004015490806005018054600181600116156101000203166002900480601f0160208091040260200160405190810160405280929190818152602001828054600181600116156101000203166002900480156135745780601f1061354957610100808354040283529160200191613574565b820191906000526020600020905b81548152906001019060200180831161355757829003601f168201915b5050505050905086565b608060405190810160405280600073ffffffffffffffffffffffffffffffffffffffff1681526020016060815260200160608152602001606081525090565b828054600181600116156101000203166002900490600052602060002090601f016020900481019282601f106135fe57805160ff191683800117855561362c565b8280016001018555821561362c579182015b8281111561362b578251825591602001919060010190613610565b5b509050613639919061371c565b5090565b828054828255906000526020600020908101928215613679579160200282015b8281111561367857825182559160200191906001019061365d565b5b509050613686919061371c565b5090565b60e060405190810160405280600081526020016000815260200160608152602001606081526020016000815260200160008152602001600073ffffffffffffffffffffffffffffffffffffffff1681525090565b60e060405190810160405280600081526020016060815260200160608152602001600081526020016000815260200160608152602001606081525090565b61373e91905b8082111561373a576000816000905550600101613722565b5090565b9056fea165627a7a72305820ee55652c893ad8105c22707aab61baa61a72491cc66ad00fae7394d310d7854f0029",
  "source": "// SPDX-License-Identifier: MIT\r\npragma solidity >=0.4.22 <0.9.0;\r\n\r\ncontract ManufactureEntity {\r\n\r\n    // Define a Manufacturer struct\r\n    struct Manufacturer {\r\n        address manufacturerAddress;\r\n        string manufacturerName;\r\n        string manufacturerLocation;\r\n        uint256[] batchesProduced;\r\n    }\r\n\r\n    // Manufacturer mapping and modifiers\r\n    mapping(address => Manufacturer) public manufacturers;\r\n\r\n    modifier onlyManufacturer() {\r\n        require(\r\n            manufacturers[msg.sender].manufacturerAddress == msg.sender,\r\n            \"Only manufacturer can call this function\"\r\n        );\r\n        _;\r\n    }\r\n\r\n    // Define a modifier to check if manufacturer exists\r\n    modifier manufacturerExists(address _manufacturerAddress) {\r\n        require(\r\n            manufacturers[_manufacturerAddress].manufacturerAddress == _manufacturerAddress,\r\n            \"Manufacturer does not exist\"\r\n        );\r\n        _;\r\n    }\r\n\r\n    // Define a modifier which ensures that manufacturer does not exist\r\n    modifier manufacturerDoesNotExist(address _manufacturerAddress) {\r\n        require(\r\n            manufacturers[_manufacturerAddress].manufacturerAddress != _manufacturerAddress,\r\n            \"Manufacturer already exists\"\r\n        );\r\n        _;\r\n    }\r\n\r\n    event ManufacturerRegistered(address manufacturerAddress);\r\n\r\n    // Define a function to register a manufacturer\r\n    function registerManufacturer(\r\n        string memory _manufacturerName,\r\n        string memory _manufacturerLocation\r\n    ) public manufacturerDoesNotExist(msg.sender) { \r\n        manufacturers[msg.sender] = Manufacturer(\r\n            msg.sender,\r\n            _manufacturerName,\r\n            _manufacturerLocation,\r\n            new uint256[](0)\r\n        );\r\n        emit ManufacturerRegistered(msg.sender);\r\n    }\r\n\r\n    // Define a function to get manufacturer details\r\n    function getManufacturer(address _manufacturerAddress)\r\n        public\r\n        manufacturerExists(_manufacturerAddress)\r\n        view\r\n        returns (\r\n            address,\r\n            string memory,\r\n            string memory,\r\n            uint256[] memory\r\n        ) \r\n    {\r\n        Manufacturer memory manufacturer = manufacturers[_manufacturerAddress];\r\n        return (\r\n            manufacturer.manufacturerAddress,\r\n            manufacturer.manufacturerName,\r\n            manufacturer.manufacturerLocation,\r\n            manufacturer.batchesProduced\r\n        );\r\n    }\r\n\r\n    // Define a function to get batches produced by a manufacturer\r\n    function getManufacturerBatches(address _manufacturerAddress)\r\n        public\r\n        view\r\n        returns (uint256[] memory)\r\n    {\r\n        Manufacturer memory manufacturer = manufacturers[_manufacturerAddress];\r\n        return manufacturer.batchesProduced;\r\n    }\r\n\r\n    // Define a function to add a batch produced by a manufacturer\r\n    function addBatchProduced(address _manufacturerAddress, uint256 _batchId)\r\n        public\r\n        onlyManufacturer\r\n        returns (bool)\r\n    {\r\n        manufacturers[_manufacturerAddress].batchesProduced.push(_batchId);\r\n        return true;\r\n    }\r\n\r\n    // Define a Drug struct\r\n    struct Drug {\r\n        uint256 drugId;\r\n        string drugName;\r\n        string drugType;\r\n        uint256 drugPrice;\r\n        uint256 totalQuantity;\r\n        string description;\r\n        uint256[] batchIds;\r\n    }\r\n\r\n    mapping(uint256 => Drug) public drugs;\r\n\r\n    uint256[] public drugIds;\r\n\r\n    modifier drugPresent(uint256 _drugId) {\r\n        require(drugs[_drugId].drugId == _drugId, \"Drug does not exist\");\r\n        _;\r\n    }\r\n\r\n    function addDrug(\r\n        uint256 _drugId,\r\n        string memory _drugName,\r\n        string memory _drugType,\r\n        uint256 _drugPrice,\r\n        uint256 _totalQuantity,\r\n        string memory _description\r\n    ) public {\r\n        drugs[_drugId] = Drug(\r\n            _drugId,\r\n            _drugName,\r\n            _drugType,\r\n            _drugPrice,\r\n            _totalQuantity,\r\n            _description,\r\n            new uint256[](0)\r\n        );\r\n        drugIds.push(_drugId);\r\n    }\r\n\r\n    function getDrug(uint256 _drugId)\r\n        public\r\n        view\r\n        drugPresent(_drugId)\r\n        returns (\r\n            uint256,\r\n            string memory,\r\n            string memory,\r\n            uint256,\r\n            uint256,\r\n            string memory,\r\n            uint256[] memory\r\n        )\r\n    {\r\n        Drug memory drug = drugs[_drugId];\r\n        return (\r\n            drug.drugId,\r\n            drug.drugName,\r\n            drug.drugType,\r\n            drug.drugPrice,\r\n            drug.totalQuantity,\r\n            drug.description,\r\n            drug.batchIds\r\n        );\r\n    }\r\n\r\n    function drugExists(uint256 _drugId) public view returns (bool) {\r\n        return drugs[_drugId].drugId == _drugId;\r\n    }\r\n\r\n    function addBatchToDrug(uint256 _drugId, uint256 _batchId)\r\n        public\r\n        drugPresent(_drugId)\r\n    {\r\n        drugs[_drugId].batchIds.push(_batchId);\r\n    }\r\n\r\n    function updateDrugQuantity(uint256 _drugId, uint256 _quantity)\r\n        public\r\n        drugPresent(_drugId)\r\n    {\r\n        drugs[_drugId].totalQuantity += _quantity;\r\n    }\r\n\r\n    function updateDrugPrice(uint256 _drugId, uint256 _price)\r\n        public\r\n        drugPresent(_drugId)\r\n    {\r\n        drugs[_drugId].drugPrice = _price;\r\n    }\r\n\r\n    function getDrugIds() public view returns (uint256[] memory) {\r\n        return drugIds;\r\n    }\r\n\r\n    struct Batch {\r\n        uint256 batchId;\r\n        uint256 drugId;\r\n        string manufactureDate;\r\n        string expiryDate;\r\n        uint256 quantityProduced;\r\n        uint256 quantityAvailable;\r\n        address manufacturerAddress;\r\n    }\r\n\r\n    mapping(uint256 => Batch) public batches;\r\n\r\n    modifier batchExists(uint256 _batchId) {\r\n        require(batches[_batchId].batchId == _batchId, \"Batch does not exist\");\r\n        _;\r\n    }\r\n\r\n    function getDrugBatches(uint256 _drugId)\r\n        public\r\n        view\r\n        returns (uint256[] memory)\r\n    {\r\n        Drug memory drug = drugs[_drugId];\r\n        return drug.batchIds;\r\n    }\r\n\r\n    event BatchProduced(address manufacturerAddress, uint256 batchId);\r\n    function addBatch(\r\n        uint256 _batchId,\r\n        uint256 _drugId,\r\n        string memory _manufactureDate,\r\n        string memory _expiryDate,\r\n        uint256 _quantityProduced\r\n    ) public onlyManufacturer {\r\n        batches[_batchId] = Batch(\r\n            _batchId,\r\n            _drugId,\r\n            _manufactureDate,\r\n            _expiryDate,\r\n            _quantityProduced,\r\n            _quantityProduced,\r\n            msg.sender\r\n        );\r\n        addBatchProduced(msg.sender, _batchId);\r\n        addBatchToDrug(_drugId, _batchId);\r\n        emit BatchProduced(msg.sender, _batchId);\r\n    }\r\n\r\n    event DrugAndBatchAdded(uint256 drugId, uint256 batchId);\r\n    function addBatchAndDrug(\r\n        uint256 _drugId,\r\n        string memory _drugName,\r\n        string memory _drugType,\r\n        uint256 _drugPrice,\r\n        string memory _description,\r\n        uint256 _batchId,\r\n        string memory _manufactureDate,\r\n        string memory _expiryDate,\r\n        uint256 _quantityProduced\r\n    ) public {\r\n        addDrug(\r\n            _drugId,\r\n            _drugName,\r\n            _drugType,\r\n            _drugPrice,\r\n            _quantityProduced,\r\n            _description\r\n        );\r\n        addBatch(\r\n            _batchId,\r\n            _drugId,\r\n            _manufactureDate,\r\n            _expiryDate,\r\n            _quantityProduced\r\n        );\r\n        emit DrugAndBatchAdded(_drugId, _batchId);\r\n    }\r\n\r\n    function getBatch(uint256 _batchId)\r\n        public\r\n        view\r\n        batchExists(_batchId)\r\n        returns (\r\n            uint256,\r\n            uint256,\r\n            string memory,\r\n            string memory,\r\n            uint256,\r\n            uint256,\r\n            address\r\n        )\r\n    {\r\n        Batch memory batch = batches[_batchId];\r\n        return (\r\n            batch.batchId,\r\n            batch.drugId,\r\n            batch.manufactureDate,\r\n            batch.expiryDate,\r\n            batch.quantityProduced,\r\n            batch.quantityAvailable,\r\n            batch.manufacturerAddress\r\n        );\r\n    }\r\n}",
  "sourcePath": "D:\\manufrontend\\dashboard-codes\\contracts\\ManufactureEntity.sol",
  "compiler": {
    "name": "solc",
    "version": "0.5.1+commit.c8a2cb62.Emscripten.clang"
  },
  "schemaVersion": "3.4.16",
  "updatedAt": "2024-08-30T16:44:14.746Z",
  "networkType": "ethereum",
  "devdoc": {
    "methods": {}
  },
  "userdoc": {
    "methods": {}
  }
}